:020000040000FA
:0600000079EF1AF0120076
:0610000079EF1AF0120066
:0610080064EF13F012007A
:021018001200C4
:06102A0001002C3500005E
:08103000720000000400000042
:08103800D9CFE6FFE1CFD9FF9B
:10104000D08EF28EFD0EDBCF08F0FE0EDBCF09F066
:10105000200E081802E19D0E091847E0400E0818FE
:1010600002E19D0E09183FE0100E081802E1F00E93
:10107000091836E0080E081802E1F00E09182DE0F4
:10108000100E081802E1F20E091824E0020E0818EA
:1010900002E1A00E09181BE0020E081802E19D0EE5
:1010A000091812E0010E081802E19D0E091809E066
:1010B000200E08181CE1F20E091819E1F28AD58EEB
:1010C00016D09D80CD8013D09D82CA8410D0A0827E
:1010D000B1800DD0F288F19C0AD0F086F19A07D049
:1010E000F088F19804D09D8C02D09D8A9F8AE552A9
:1010F000E7CFD9FF120074C092FF120074C093FFB3
:10110000120074C094FF12009268120093681200DB
:1011100094681200D180120004001200D9CFE6FFBB
:10112000E1CFD9FFFD0EDBCF08F0FE0EDBCF09F0DB
:10113000820E081802E10F0E091801E1C3D0170E44
:10114000081802E17C0E091801E1B9D0160E081842
:1011500002E17C0E091801E1AFD0120E081802E17D
:101160007C0E091801E1A5D0110E081802E17C0ED1
:10117000091801E19BD0100E081802E17C0E091835
:1011800001E191D0810E081802E10F0E091801E16A
:1011900087D00F0E081802E17C0E091801E17DD0FE
:1011A0000E0E081802E17C0E091874E00D0E0818E6
:1011B00002E17C0E09186BE00C0E081802E17C0EAF
:1011C000091862E00B0E081802E17C0E091859E0BC
:1011D0000A0E081802E17C0E091850E0090E0818E2
:1011E00002E17C0E091847E0080E081802E17C0EA7
:1011F00009183EE0800E081802E10F0E091835E0CC
:10120000050E081802E17C0E09182CE0040E0818DF
:1012100002E17C0E091823E0030E081802E17C0E9F
:1012200009181AE0020E081802E17C0E091811E0F4
:10123000010E081802E17C0E091808E0085044E18C
:101240007C0E091841E1929080803ED0929280827B
:101250003BD09294808438D09296808635D09298F4
:10126000808832D0929A808A2FD0926A89682CD056
:101270009390818029D09392818226D09394818407
:1012800023D09396818620D0939881881DD0939AFD
:10129000818A1AD0939C818C17D0939E818E14D012
:1012A000936A8A6811D0949082800ED09492828240
:1012B0000BD09494828408D0949C828C05D0949E08
:1012C000828E02D0946A8B68E552E7CFD9FF120074
:1012D000D9CFE6FFE1CFD9FFFD0EDBCF08F0FE0E40
:1012E000DBCF09F0820E081802E10F0E091801E1A8
:1012F000C3D0170E081802E17C0E091801E1B9D01D
:10130000160E081802E17C0E091801E1AFD0120E8A
:10131000081802E17C0E091801E1A5D0110E081889
:1013200002E17C0E091801E19BD0100E081802E1C1
:101330007C0E091801E191D0810E081802E10F0E10
:10134000091801E187D00F0E081802E17C0E091878
:1013500001E17DD00E0E081802E17C0E091874E040
:101360000D0E081802E17C0E09186BE00C0E08182F
:1013700002E17C0E091862E00B0E081802E17C0EF7
:10138000091859E00A0E081802E17C0E091850E00D
:10139000090E081802E17C0E091847E0080E08182B
:1013A00002E17C0E09183EE0800E081802E10F0EE3
:1013B000091835E0050E081802E17C0E09182CE02A
:1013C000040E081802E17C0E091823E0030E081829
:1013D00002E17C0E09181AE0020E081802E17C0EE8
:1013E000091811E0010E081802E17C0E091808E046
:1013F000085044E17C0E091841E1929080903ED063
:10140000929280923BD09294809438D0929680961B
:1014100035D09298809832D0929A809A2FD0926A42
:10142000896A2CD09390819029D09392819226D072
:101430009394819423D09396819620D09398819809
:101440001DD0939A819A1AD0939C819C17D0939E19
:10145000819E14D0936A8A6A11D0949082900ED0A3
:10146000949282920BD09494829408D0949C829C03
:1014700005D0949E829E02D0946A8B6AE552E7CF93
:10148000D9FF1200D9CFE6FFE1CFD9FFFD0EDBCFA8
:1014900008F0FE0EDBCF09F01F0E081802E17C0EEB
:1014A000091801E1AFD0170E081802E17C0E0918E7
:1014B00001E1A5D0160E081802E17C0E091801E121
:1014C0009BD0120E081802E17C0E091801E191D0A0
:1014D000110E081802E17C0E091801E187D0100EE8
:1014E000081802E17C0E091801E17DD00F0E0818E2
:1014F00002E17C0E091874E00E0E081802E17C0E61
:1015000009186BE00D0E081802E17C0E091862E064
:101510000C0E081802E17C0E091859E00B0E081891
:1015200002E17C0E091850E00A0E081802E17C0E58
:10153000091847E0090E081802E17C0E09183EE080
:10154000080E081802E17C0E091835E0050E08188F
:1015500002E17C0E09182CE0040E081802E17C0E52
:10156000091823E0030E081802E17C0E09181AE09E
:10157000020E081802E17C0E091811E0010E08188D
:1015800002E17C0E091808E008503EE17C0E0918C3
:101590003BE19290807038D09292807235D09294D4
:1015A000807432D0929680762FD0929880782CD00A
:1015B000929A807A29D09390817026D093928172EA
:1015C00023D09394817420D0939681761DD09398E4
:1015D00081781AD0939A817A17D0939C817C14D009
:1015E000939E817E11D0949082700ED094928272DC
:1015F0000BD09494827408D0949C827C05D0949EE5
:10160000827E02D0959E837EE552E7CFD9FF1200FD
:10161000D9CFE6FFE1CFD9FFFD0EDBCF08F0FE0EFC
:10162000DBCF09F0170E081802E17C0E091801E162
:1016300019D1160E081802E17C0E091801E109D132
:10164000120E081802E17C0E091801E1F9D0110E02
:10165000081802E17C0E091801E1E9D0100E081803
:1016600002E17C0E091801E1D9D00F0E081802E141
:101670007C0E091801E1C9D00E0E081802E17C0E9B
:10168000091801E1B9D00D0E081802E17C0E091805
:1016900001E1A9D00C0E081802E17C0E091801E145
:1016A00099D00B0E081802E17C0E091801E189D0CF
:1016B0000A0E081802E17C0E091801E179D0090E22
:1016C000081802E17C0E09186AE0080E081802E109
:1016D0007C0E09185BE0050E081802E17C0E091863
:1016E0004CE0040E081802E17C0E09183DE0030EE0
:1016F000081802E17C0E09182EE0020E081802E11B
:101700007C0E09181FE0010E081802E17C0E091872
:1017100010E0085001E0ADD07C0E091801E0A9D01E
:101720009290FB0EDB50E8B08080E8B0A2D08090B1
:10173000A0D09292FB0EDB50E8B08082E8B099D046
:10174000809297D09294FB0EDB50E8B08084E8B092
:1017500090D080948ED09296FB0EDB50E8B08086BD
:10176000E8B087D0809685D09298FB0EDB50E8B029
:101770008088E8B07ED080987CD0929AFB0EDB50B7
:10178000E8B0808AE8B075D0809A73D09390FB0E51
:10179000DB50E8B08180E8B06CD081906AD0939241
:1017A000FB0EDB50E8B08182E8B063D0819261D05B
:1017B0009394FB0EDB50E8B08184E8B05AD081945A
:1017C00058D09396FB0EDB50E8B08186E8B051D03C
:1017D00081964FD09398FB0EDB50E8B08188E8B03B
:1017E00048D0819846D0939AFB0EDB50E8B0818AAE
:1017F000E8B03FD0819A3DD0939CFB0EDB50E8B01F
:10180000818CE8B036D0819C34D0939EFB0EDB50A7
:10181000E8B0818EE8B02DD0819E2BD09490FB0E45
:10182000DB50E8B08280E8B024D0829022D094923D
:10183000FB0EDB50E8B08282E8B01BD0829219D058
:101840009494FB0EDB50E8B08284E8B012D082940E
:1018500010D0949CFB0EDB50E8B0828CE8B009D02D
:10186000829C07D0949EFB0EDB50E8B0828EE8A0ED
:10187000829EE552E7CFD9FF1200D9CFE6FFE1CF34
:10188000D9FF020EE126F40E00017425010FA96EA6
:10189000FD0E00017425A96E00017451A9240B0BE3
:1018A000A66EA85001E0FDD7DE6ADD6ADECF14F037
:1018B000DDCF15F00C0E086E096AFD0EDBCF0DF0C2
:1018C000FE0EDBCF0EF09BEC19F006C016F007C041
:1018D00017F01650145C1750155806E20000DF2A66
:1018E000010E01E3DB2AE2D7020EE15C02E2E16ACB
:1018F000E552E16EE552E7CFD9FF1200D9CFE6FFFE
:10190000E1CFD9FF020EE126FC0E00017425010F84
:10191000A96E7451A9240B0BA66EA850FEE1DE6AD5
:10192000DD6ADECF14F0DDCF15F00C0E086E096A0B
:10193000FD0EDBCF0DF0FE0EDBCF0EF09BEC19F0B1
:1019400006C016F007C017F00650145C0750155873
:101950000AE2010EE66E59EC1AF0E552DF2A010E9A
:10196000E0E3DB2ADED7020EE15C02E2E16AE55247
:10197000E16EE552E7CFD9FF1200D9CFE6FFE1CF04
:10198000D9FFFE0EDB5000017425C16E070E7425D1
:10199000C06EE552E7CFD9FF1200D9CFE6FFE1CF05
:1019A000D9FFFE0EDB500C0A24E0070A20E0010AF2
:1019B0001CE0030A18E0010A14E00C0A10E0070A10
:1019C0000CE0010A08E0030A04E0010A14E1010E38
:1019D00011D0050E0FD0090E0DD00D0E0BD0110E2B
:1019E00009D0210E07D0250E05D0290E03D02D0ECB
:1019F00001D0310EC26E0A0EE66EE66A7FDFE55256
:101A0000E552C09EC282C2B2FED7C450156AF36EC0
:101A100015C0F4FFE552E7CFD9FF1200D9CFE6FF9A
:101A2000E1CFD9FFFE0EDB500C0A24E0070A20E0CC
:101A3000010A1CE0030A18E0010A14E00C0A10E095
:101A4000070A0CE0010A08E0030A04E0010A14E1B5
:101A5000010E11D0050E0FD0090E0DD00D0E0BD0BA
:101A6000110E09D0210E07D0250E05D0290E03D066
:101A70002D0E01D0310EC26E0A0EE66EE66A3EDF12
:101A8000E552E552C08EC282C2B2FED7C3CFF3FF89
:101A9000C4CFF4FFE552E7CFD9FF1200D9CFE6FF5C
:101AA000E1CFD9FFFE0EDB50030A67E0020A42E0F5
:101AB000010A01E084D0FC0EDBCF08F0FD0EDBCF85
:101AC00009F0020E081801E1095031E0040E08186F
:101AD00001E109502AE0080E081801E1095023E04D
:101AE000100E081801E109501CE0200E081801E151
:101AF000095015E0400E081801E109500EE0800E73
:101B0000081801E1095007E0085059E1010E0918D1
:101B100056E1870E0DD0860E0BD0850E09D0840EAF
:101B200007D0830E05D0820E03D0810E01D0800E27
:101B3000D56E45D0FC0EDBCF08F0FD0EDBCF09F0F3
:101B4000010E081801E1095015E0020E081801E124
:101B500009500EE0040E081801E1095007E0080ED4
:101B600008182DE109502BE1B10E05D0A10E03D0CC
:101B7000910E01D0810ECD6E22D0FC0EDBCF08F08D
:101B8000FD0EDBCF09F0010E081801E1095015E048
:101B9000020E081801E109500EE0040E081801E1D8
:101BA000095007E0080E08180AE1095008E1B10ED3
:101BB00005D0A10E03D0910E01D0810EB16EE55279
:101BC000E7CFD9FF1200D9CFE6FFE1CFD9FF060E4C
:101BD000E126176A186A010E196EFC0EDBCF1AF0A7
:101BE000FD0EDBCF1BF01C6A1A50175C146E1B50E5
:101BF0001858156E1C501958166E14C0DEFF15C00B
:101C0000DDFF146A010E156E14C00DF00E6EDECFEE
:101C100008F0DDCF09F043EC1AF0020E08C0DBFF3C
:101C2000030E09C0DBFFDECF14F0DDCF15F0156A1F
:101C3000040E14C0DBFF050E15C0DBFFFE0EDB50EB
:101C4000030A12E0020A09E0010A14E1020EDB5065
:101C5000D76E040EDB50D66E0DD0020EDB50CF6E69
:101C6000040EDB50CE6E06D0020EDB50B36E040EB7
:101C7000DB50B26E060EE15C02E2E16AE552E16E13
:101C8000E552E7CFD9FF1200D9CFE6FFE1CFD9FF68
:101C9000A69EA69CA684FE0EDB50A96EFD0EDB5010
:101CA000A86E550EA76EAA0EA76EA682A6B2FED784
:101CB000E552E7CFD9FF1200D9CFE6FFE1CFD9FF38
:101CC000FE0EDB50A96EA694A69EA69CA680A850E8
:101CD000E552E7CFD9FF1200FD0EA96E0B0EA91435
:101CE000A66EA850FEE17E0E166E0E6EA9CF09F00C
:101CF00087EC1AF00538F00B146E156A72C008F004
:101D000073C009F00D6E15C00EF043EC1AF008C058
:101D100075F008C0E6FFD0DFE5520001746F1200D5
:101D2000D9CFE6FFE1CFD9FF040EE126948E949C33
:101D3000240EAC6E900EAB6E080EB86E74C018F028
:101D4000196A1A6A1B6A1C6A1B0E1D6EB70E1E6E7C
:101D50001F6A1CC006F01DC007F0086E1FC009F006
:101D6000FB0EDBCF0BF0FC0EDBCF0CF0FD0EDBCF60
:101D70000DF0FE0EDBCF0EF008EC1AF01850062422
:101D8000146E19500720156E1A500820166E1B503D
:101D90000920176E1406000E155A165A175A14C049
:101DA000DFFF010E15C0DBFF020E16C0DBFF030EC6
:101DB00017C0DBFFD9CFE9FFDACFEAFFEECF14F08F
:101DC000EECF15F0EECF16F0EFCF17F0080ED8904B
:101DD0001732163215321432E806F9E11450B06E9B
:101DE000000EDB50AF6E040EE15C02E2E16AE552E8
:101DF000E16EE552E7CFD9FF1200D9CFE6FFE1CF80
:101E0000D9FFACA2FED7FE0EDB50AD6EE552E7CF98
:101E1000D9FF1200D9CFE6FFE1CFD9FF020EE126AC
:101E20000C0E00017425BD12070E7425CA6EFD0E3E
:101E3000A96EA680A850FEE1FD0E00017425E824DD
:101E4000941674C018F0196A1A6A1B6A100E086E8C
:101E5000096AFD0EDBCF0DF0FE0EDBCF0EF06EEC4F
:101E600019F006C020F007C021F0226A236A21AED3
:101E700002D0226823681C6A1B0E1D6EB70E1E6EF0
:101E80001F6A1CC006F01DC007F0086E1FC009F0D5
:101E900020C00BF021C00CF022C00DF023C00EF0CA
:101EA0003AEC19F018500624146E19500720156EDC
:101EB0001A5008201B5009201406000E155A145001
:101EC000CB6ECB28166E176A086E17C009F0FB0E92
:101ED000DBCF0DF0FC0EDBCF0EF06EEC19F006C080
:101EE00014F007C015F0190E0D6E0E6A06C008F04A
:101EF00007C009F014EC19F008C0DEFF09C0DDFFCF
:101F000000017451166E176ADE501624146EDD50EF
:101F10001720156ED89015321432D890153214321D
:101F20001450BE6EDECF16F0DDCF17F0030E16167E
:101F3000000E1716745100011624146E000E17209F
:101F4000040ED8901436E804FCE11450BD12020EC1
:101F5000E15C02E2E16AE552E16EE552E7CFD9FFCA
:101F60001200D9CFE6FFE1CFD9FF020EE1260C0E19
:101F700000017425BA12070E7425CA6EFD0EA96EF3
:101F8000A680A850FEE1FE0E00017425E8249416F8
:101F900074C018F0196A1A6A1B6A100E086E096A72
:101FA000FD0EDBCF0DF0FE0EDBCF0EF06EEC19F068
:101FB00006C020F007C021F0226A236A21AE02D0B9
:101FC000226823681C6A1B0E1D6EB70E1E6E1F6AE8
:101FD0001CC006F01DC007F0086E1FC009F020C02D
:101FE0000BF021C00CF022C00DF023C00EF03AEC33
:101FF00019F018500624146E19500720156E1A5047
:1020000008201B5009201406000E155A1450CB6EE0
:10201000CB28166E176A086E17C009F0FB0EDBCFCF
:102020000DF0FC0EDBCF0EF06EEC19F006C014F0D4
:1020300007C015F0190E0D6E0E6A06C008F007C035
:1020400009F014EC19F008C0DEFF09C0DDFF000143
:102050007451166E176ADE501624146EDD50172068
:10206000156ED89015321432D8901532143214509F
:10207000BB6EDECF14F0DDCF15F0030E1416000E8C
:102080001516040ED8901436E804FCE11450BA1268
:10209000020EE15C02E2E16AE552E16EE552E7CF51
:1020A000D9FF1200D9CFE6FFE1CFD9FFE652FE0EED
:1020B000DB503F080DE28C908C82400E146EFE0EB9
:1020C000DBCFE7FF1450E75EFE0EE7CFDBFF02D069
:1020D0008C808C92FE0EDB50400FE66EC1D8E5522C
:1020E000FD0EDB40E840E8401F0BB80FE66EB8D8A5
:1020F000E5520AD9DF6E08D9DF6EFE0EDB50400FC5
:10210000E66EAED8E5521468FD0EDB50070B156E77
:10211000010E155204E0E846FE0B1506FCE1145CC6
:10212000DF14DF6EDFCFE6FFACD8E552E552E552B3
:10213000E7CFD9FF1200D9CFE6FFE1CFD9FFFD0EDF
:10214000DBCF6AF0FC0EDB5000016A5D0BE26AC077
:10215000E6FFFE0EDBCFE6FFA5DFE552E55200010C
:102160006A2BF0D7E552E7CFD9FF1200D9CFE6FFAF
:10217000E1CFD9FFFE0EDBCF6AF0FD0EDB50000190
:102180006A5D0BE2FC0EDBCFE6FF6AC0E6FF8ADF8A
:10219000E552E55200016A2BF0D7E552E7CFD9FFAF
:1021A0001200D9CFE6FFE1CFD9FFFD0EDBCFE6FF6E
:1021B000FC0EDBCFE6FFFE0EDBCFE6FFD7DFE552FE
:1021C000E552E552FB0EDBCFE6FFFC0EDBCFE6FF70
:1021D000FE0EDBCFE6FFCADFE552E552E552FB0E0D
:1021E000DBCFE6FFFD0EDBCFE6FFFE0EDBCFE6FF2B
:1021F000A2DFE552E552E552FB0EDBCFE6FFFD0E16
:10220000DBCFE6FFFC0EDBCFE6FF95DFE552E552C4
:10221000E552E552E7CFD9FF1200000012008C888A
:10222000FCDF81CF6DF08C9800016D511200936836
:102230008C948C868C50010B0EE08C50020B0BE0C2
:102240008C90EDDF800BFDE18C808C92E8DF800BC1
:10225000FDE18C8203D0E3DF800BFDE1936A120085
:10226000D9CFE6FFE1CFD9FFE2DFFE0EDB50816E72
:102270008C948C968C88D1DF8C98E552E7CFD9FF6F
:102280001200D9CFE6FFE1CFD9FFD1DFFE0EDB5040
:10229000816E8C848C968C88C0DF8C98E552E7CF59
:1022A000D9FF120000016B2B400E6B5D01E111D8CC
:1022B00000016B51146E156A800E141809E1155057
:1022C00007E16B6B080E6C273F0E6C156C6F01D825
:1022D000120000016B513F0803E28C908C8202D007
:1022E0008C808C923F0E6B15400FE66EB9DFE55285
:1022F0003F0E00016C15E840E840E8401F0BB80FA6
:10230000E66EAEDFE552120092DF93688C848C8615
:102310008C8883DF81CF6DF08C98936A00016D51BA
:102320001200D9CFE6FFE1CFD9FF020EE1268C8063
:102330008C82DF6A080EDF5C1BE2400EE66E90DFE7
:10234000E552B80EDF24E66E8BDFE552010EDB6A44
:10235000400EF36E010EDBCFF4FFF350F45C06E2A7
:10236000E6688FDFE552010EDB2AF2D7DF2AE2D7DB
:10237000E66AE66A9AD9E552E552020EE15C02E2AB
:10238000E16AE552E16EE552E7CFD9FF1200D9CFFD
:10239000E6FFE1CFD9FFE652936A0001DF0E726FCC
:1023A0000F0E736F746FDF0E756F95909592959405
:1023B00095969598959A959C8C8A8C808C828C8C1D
:1023C0003F0EE66E4DDFE552C00EE66E49DFE55288
:1023D000A8DF010EE66EE66E68D9E552E552FD0E05
:1023E000A96E0B0EA914A66EA850FEE17E0E166E05
:1023F0000E6EA9CF09F087EC1AF00538F00B146EB9
:10240000156A72C008F073C009F00D6E15C00EF0A9
:1024100043EC1AF008C075F008C0A9FFA694A69E68
:10242000A69CA680A8CF74F0010EE66EE66E3DD99C
:10243000E552E5520001240E706F2A0E716F9BD891
:10244000DC0EE66E050EE66E7EEC0CF0E552E55213
:1024500068DFE552E552E7CFD9FF1200D9CFE6FF9A
:10246000E1CFD9FF020EE126200EF36EFE0EDBCF88
:10247000F4FFF350F45C11E2FE0EDB500A0A04E0B4
:10248000070A09E100016B6B00016B6B080E6C27FA
:102490003F0E6C156C6F1DDF2AD0DF6A070EDF5C04
:1024A00022E2FE0EDB50E00F070DF3CF14F0F4CF65
:1024B00015F0840E1426270E1522DF500F01142468
:1024C000F66E000E1520F76E0800010EF5CFDBFF4B
:1024D000DB50550806E0010EDBCFE6FFD2DEE55209
:1024E000E1DEDF2ADBD7E668CCDEE552DBDE020E7A
:1024F000E15C02E2E16AE552E16EE552E7CFD9FF25
:1025000012006EC0F6FF6FC0F7FF0800F55032E012
:102510006EC0F6FF6FC0F7FF0800F55016081CE10B
:1025200000016EC0F6FF6FC0F7FF6E2B000E6F2329
:102530006EC0F6FF6FC0F7FF6E2B6F230800F5CF5C
:102540006BF06EC0F6FF6FC0F7FF6E2B6F230800B5
:10255000F5CF6CF0BEDED5D700016EC0F6FF6FC0C0
:10256000F7FF6E2B000E6F230800F550E66E76DF46
:10257000E552C7D71200D9CFE6FFE1CFD9FF060E4B
:10258000E126000170C0F6FF71C0F7FF702B000E4E
:1025900071230800F550DF6E70C0F6FF71C0F7FFC1
:1025A000702B000E71230800010EF5CFDBFF000138
:1025B0007429080DF3CF14F0F3CF0EF0010EDBCF2A
:1025C00009F087EC1AF0040E09C0DBFF0001742942
:1025D000080DF3CF14F0F3CF0EF0010EDBCF09F0AE
:1025E00087EC1AF0050E09C0DBFF020EDB6A000162
:1025F00070C0F6FF71C0F7FF702B000E712308004A
:10260000030EF5CFDBFF6B6B6C6B6A6BDF506A5DA3
:102610003EE2080EF36E020EDBCFF4FFF350F45CE3
:1026200016E2030EDBA007D06CC0E6FF6BC0E6FF2E
:1026300039DDE552E55200016C2B030EDB407F0BC8
:10264000E76E030EE7CFDBFF020EDB2AE2D7020EB6
:10265000DB6A702B000E712370C0F6FF71C0F7FFAC
:102660000800030EF5CFDBFF6B2B050EDBCFE6FF7B
:10267000040EDB50E552E75C146E00017429080D6E
:10268000F3501402F3CF6CF000016A2BBFD7040E95
:10269000DB06DB50B8E1060EE15C02E2E16AE552DE
:1026A000E16EE552E7CFD9FF1200D9CFE6FFE1CFC7
:1026B000D9FFFE0EDBCF6BF0FD0EDBCF6CF009DE39
:1026C000E552E7CFD9FF1200DACFE4FFE652E55238
:1026D000E5CFDAFF1100D9CFE6FFE1CFD9FFE6520F
:1026E0006CEC0EF054DE010EE66E010EE66EDDDFE0
:1026F000E552E5520001260E706F2E0E716F3BDF22
:10270000D00EE66E070EE66E7EEC0CF0E552E5525A
:102710000001760E6E6F340E6F6FF3DE0001660EF1
:102720006E6F340E6F6FEDDE0001580E6E6F340E5B
:102730006F6FE7DEE80EE66E030EE66E7EEC0CF0E1
:10274000E552E5520F0EE66E7C0EE66E42EC0AF0A4
:10275000E552E5521F0EE66E7C0EE66E42EC0AF084
:10276000E552E552F40EE66E010EE66E7EEC0CF0DC
:10277000E552E55284A6FF00E5D7E552E552E7CFE2
:04278000D9FF12006B
:0C278400FFFFFF55555555FFA0FF5555B0
:102790005555F8FFF855555555EB80EB80EB5555E1
:1027A000D9B680B6CD55559CECF79B9C5555C9B60E
:1027B000FFDDAF5555FBFCFF55555555E3DDBE55C7
:1027C000555555BEDDE355555555EBD5E3D5EB5580
:1027D00055F7F7C1F7F755557F9F5555555555F79F
:1027E000F7F7F7F75555BF5555555555559FEFF721
:1027F000FBFC5555C1AEB6BAC15555FFBD80BFFFF4
:1028000055559DAEB6B6B95555DDBEB6B6C955558A
:10281000E7EBED80EF5555D8B6B6B6CE5555C3B5F6
:10282000B6B6CF5555FE8EF6FAFC5555C9B6B6B6B6
:10283000C95555F9B6B6D6E15555EB5555555555CB
:10284000557F975555555555F7EBDDBE555555EB0D
:10285000EBEBEB555555BEDDEBF7555555FDFEAE93
:10286000F6F95555C1BEA2FFB1555583EDEEED8386
:10287000555580B6B6B6C95555C1BEBEBEDD555517
:1028800080BEBEDDE3555580B6B6B6BE555580F662
:10289000F6F6FE5555C1BEB6D68D555580F7F7F7FD
:1028A000805555BE80BE55555555DFBFBEC0FE553F
:1028B0005580F7EBDDBE555580BFBFBF55555580E0
:1028C000FDF3FD80555580F9F7CF805555C1BEBE4B
:1028D000BEC1555580F6F6F6F95555C1BEAEDEA11E
:1028E000555580F6E6D6B95555D9B6B6B6CD555537
:1028F000FEFE80FEFE5555C0BFBFBFC05555F0CF90
:10290000BFCFF05555F0CFBFC7BFCFF09CEBF7EB73
:102910009C5555F8F78FF7F855559EAEB6BABC558D
:102920005580BEBE55555555FCFBF7EF9F5555BE1E
:10293000BE8055555555F7FBFDFBF75555BFBFBF3D
:10294000BFBF5555FCFBFF55555555DFABAB875504
:10295000555580D7BBBBC75555C7BBBBD75555557C
:10296000C7BBBBD7805555C7ABABB7555555F781DE
:10297000F6FD555555675B5BA755555580F7FBFB35
:10298000875555C2BF55555555557F7B8255555571
:102990005580EFD7BB555555FE80FF55555555838E
:1029A000F7FB87FB875583F7FBFB875555C7BBBBF9
:1029B000C755555503E7DBDBE75555E7DBDBE70399
:1029C000555583F7FBFBF75555B7ABABDB55555565
:1029D000FBC1BB55555555C3BFBFDF835555E3DF1D
:1029E000BFDFE35555C3BFCFBFC35555BBD7EFD7E7
:1029F000BB5555E35F5F835555559BABABB3555501
:102A000055F7C9BE55555555FF80FF55555555BE0F
:102A1000C9F755555555FFFF5555555555017D7D00
:102A20007D0155558040FFFFFF0703C3E3F3F3F338
:102A3000E3C38303FFFFFFFFFFFFFFFFFFFFFFFF76
:102A4000FFFFFFFFFFFFFFFFFFFFFF7F3F3F3F7FD6
:102A5000FFFF0303C3E3F3F3F3E3C30303FFFFFF4A
:102A60000000000000000000000000000000000066
:102A70000000000000000000000000000000000056
:102A80000000000000000000000000000000000046
:102A90000000000000000000000000000000000036
:102AA000000000000000FFFFFFE0C0C3C7CFCFCF92
:102AB000C7C3C1C0FFFFFFFFFFFFFFFFFFFFFFFF17
:102AC000FFFFFFFFFFFF7F3F0F03010080E0F0FCEF
:102AD000FFFFE0C0C3C7CFCFCFC7C3C0E0FFFFFF3A
:102AE0000000000000000000800000000000000066
:102AF00000000000000000000000000000000000D6
:102B00000000000080000000000000000000000045
:102B100000000000000000000000000000000000B5
:102B2000000000008080FF0100F8FCFCFCFCFCFCC5
:102B3000FCFCFCFC0000FF8F0707070F1F3F7FFF17
:102B4000FFFF3F0F07010080C0F0FCFEFFFFFFFF0B
:102B50000000FCFCFCFCFCFCFCFCFCFCFC0000FFA2
:102B60000000047FFF840000FD0000FC080404FC5A
:102B700000043CF0E03C0C00FC808040FC0000FCC9
:102B80004C040400FF0000C0C030F884844C00787E
:102B90008C84847C1000FC0C0404FC08040CF800F9
:102BA00000C0701E0300FF0000FFFFFFFFFFFFFFDC
:102BB000FFFFFFFF0000FFFFFFFEFCF8F0E0C0801A
:102BC00001000080F0F8FEFFFFFFFFFFFFFFFFFFA7
:102BD0000000FFFF0F0FCFCFCFCFCFFFFF0000FFD1
:102BE00000000000008080C0C0C0C0800000000065
:102BF00000000003010000000000000000000000D1
:102C000000C0C0C000000000C0C0C000008080C084
:102C1000C0C0C080000080C0C0C0C0C0C080000074
:102C2000020300000000FF0000FFFF0C0CFCFCFC96
:102C30001C0CFFFF0000FFFF7F3F0F0F03F7FFFF9C
:102C4000FFFFFFFFFFFFFFFFFF03070F3F3FFFFFF8
:102C50000000FFFF0C0CFFFFFF0F0FFFFF0000FF46
:102C60000000000000870F1C1838F8F14000ECF657
:102C70003636B6FEFC0000FEFE1C06060EFEFC000C
:102C8000007FFFFF00000000FFFF7F0000870F1C98
:102C90001C38F8F10000FFFFFF181818BFF7E0001C
:102CA000000000000000FF80001F3F3C3C3C3C3C1B
:102CB0003C3C3F3F0000F0F0E0C0000000F0F0F0CE
:102CC000F0F0F0F0F0F0F0F0F0000000C0C0F0F034
:102CD00000003F3F3C3C3C3C3C3C3C3F3F0000FF55
:102CE00000000000000103030303010100000103D1
:102CF00003030303030000030300000000030300B9
:102D000000000103030303030101000000010303AA
:102D10000303010100000103030303030301000097
:102D2000000000000000FFFFFF1F0FC7E3F3F3F3F5
:102D3000E3C7870FFFFFFFFFFFFFFFFEFCFFFFFF63
:102D4000FFFFFFFFFFFFFFFFFFFCFEFFFFFFFFFF97
:102D5000FFFF1F0FC7E3F3F3F3E3C70F0FFFFFFFFF
:102D60000000000000000000000000000000000063
:102D70000000000000000000000000000000000053
:102D80000000000000000000000000000000000043
:102D90000000000000000000000000000000000033
:102DA0000000000000007F7F7F787063474F4F4F27
:102DB000474371707F7F7F7F7F7F7F7F7F7F7F7FB4
:102DC0007F7F7F7F7F7F7F7F7F7F7F7F7F7F7F7F13
:102DD0007F7F787063474F4F4F474370707F7F7F8F
:102DE00000000000000000000000000000000000E3
:102DF00000000000000000000000000000000000D3
:102E000000000000000000000000000000000000C2
:102E100000000000000000000000000000000000B2
:102E200000000000000080400000000000000000E2
:102E30000000000000000000000000000000000092
:102E40000000000000000000000000000000000082
:102E50000000000000000000000000000000000072
:102E60000000000000000000000000000000000062
:102E70000000000000000000000000000000000052
:102E80000000000000000000000000000000000042
:102E90000000000000000000000000000000000032
:102EA0000000000000000000000000000000F8FE2C
:102EB000CF8707070F1E08000080C0E060E0E0C079
:102EC000800000E0E080C0E0E0C0800000FFFFFF85
:102ED00000000000FFFF0000F8FECF8707070F1E6D
:102EE000080000DFFF8707070707FFFE000000005C
:102EF00000000000000000000000000000000000D2
:102F000000000000000000000000000000000000C1
:102F100000000000000000000000000000000000B1
:102F20000000000000000000000000000080C1C39D
:102F300007070F0F0FFEF80080F1F138080888FF2F
:102F4000FF0000FFFF07000001FFFF00007FFFFF01
:102F500000000000FFFF0000C0C307070F0F0FFEB7
:102F6000FC4000FFFF0F060607079FF8F000000077
:102F700000000000000000000000E0F8F8F8F8F899
:102F8000F8F8F8FCFCFCFCFCFCFCFCFCFC7CFCFC0D
:102F9000FCFCFCFCFEE0C0C0C0C0C0C0C0C000C0A3
:102FA000E000000000000000000000000000030737
:102FB0000F0E0E0E0E07010000070F0E0E0E030F70
:102FC0000F00000F0F000000000F0F0000000307AC
:102FD0000F0E0E0E0701000001070F0E0E0E0E075A
:102FE000010000070F0F0E0E0E0E0F07010000006C
:102FF00070F800F8F8F8F8F8783F3F3F7FFFFFFFE0
:10300000FFFF7F3F0F0381C1C1C3C3C1C18080C126
:10301000FFFFFFFFFFFFFFFFFFFFFFFFFFFF00FFBF
:10302000FF00000000000000006070787E7E7E7E61
:103030007E7E7E7E7E7E7E7E7E7E7E7E7E7E7E7EB0
:103040007E7E7E7E7E7E7E7E7E7E7E7E7E7E7E7EA0
:103050007E7E7E7E7E7E7E7E7E7E7E7E7E7E7E7E90
:103060007E7E7E7E7E7E7E7E7E7E7E7E7E7E7E7C82
:10307000FEFF00FFFFFFFF01000000000001878F3F
:10308000838180808E8E0F0F0F0F8F8F8F8F8F8F8A
:103090008F8F8F8F8F8F8F8F01038F8FFFFF00FF99
:1030A000FF000000000000000000000000EC121211
:1030B0007E00788C70768C8C70F08E700C8CF27038
:1030C000DC8C60EC8CF00000708CF80000E00E7C72
:1030D000C07880F000DC708C8C70F80CF00CF06024
:1030E0008CFC60F88C00E08EF0708C8C700000001E
:1030F0000E0F000F0F0F0F0F1C78F0F8FCFEFFFFF4
:10310000FFFFFFFFFFFFFFFCF8E081030F1F3F07FA
:103110000303030307FFFFFFFCFEFFFFFFFF00FFAA
:10312000FF000000000000000000000000000000A0
:10313000000000000000000000000000000000008F
:10314000000000000000000000000000000000007F
:10315000000000000000000000000000000000006F
:10316000000000000300000000000000000000005C
:1031700000000000000000000000030F1F3F1F1FA1
:103180001F1F1F1F1F1F1F1F1F1F1F1F3E1E1F1838
:103190001038381038130303030303030303000339
:1031A000030000000000000000000000000000001C
:1031B000000000000000000000000000000000000F
:1031C00000000000000000000000000000000000FF
:1031D00000000000000000000000000000000000EF
:1031E00000000000000000000000000000000000DF
:1031F00000000000000000000000000000000000CF
:1032000000000000000000000000000000000000BE
:1032100000000000000000000000000000000000AE
:083220000000000000000000A6
:08322800006A0EAE1DEF19F063
:103230000D6C0E1EE86A0E22001E09AE25EF19F075
:10324000086C091EE86A0922001E43EC1AF009BE48
:1032500035EF19F000AE000C086C091EE86A09226F
:10326000046C051EE86A0522000C00BE2CEF19F064
:103270000188FF0C006AE86A0EAE47EF19F00B6C8C
:103280000C1E0D1E0E1E0C220D220E22001E09AE5B
:1032900052EF19F0066C071E081E091E07220822AD
:1032A0000922001E08EC1AF009BE69EF19F000AE01
:1032B000000C066C071E081E091EE86A0722082279
:1032C0000922026C031E041E051E0322042205228D
:1032D000000C00BE59EF19F00188FF0C09C013F073
:1032E00008C012F008500D02F4CF07F0F3CF06F03B
:1032F00009500E02F4CF09F0F3CF08F00D02F3509D
:103300000726F4500822E86A092212500E02F350F0
:103310000726F4500822E86A09220EAE94EF19F04D
:103320001250085E1350095A13AE000C0D50085E7F
:103330000E50095A000C08C012F008500D02F4CFCC
:1033400007F0F3CF06F009500E02F4CF09F0F3CFE7
:1033500008F00D02F3500726F4500822E86A09220B
:1033600012500E02F3500726F4500822E86A092290
:02337000000C4F
:0E3372002A0EF66E100EF76E000EF86E0001B9
:103380000900F550656F0900F550666F03E1656748
:1033900001D03DD00900F550606F0900F550616F14
:1033A0000900F550626F09000900F550E96E090047
:1033B000F550EA6E090009000900F550636F090035
:1033C000F550646F09000900F6CF67F0F7CF68F099
:1033D000F8CF69F060C0F6FF61C0F7FF62C0F8FF88
:1033E0000001635302E1645307E00900F550EE6EFB
:1033F0006307F8E26407F9D767C0F6FF68C0F7FF14
:1034000069C0F8FF00016507000E665BBFD71200B8
:10341000056A046A036A026A200EE76ED8900636CF
:1034200007360836093602360336043605360B50A1
:10343000025C0C5003580D5004580E50055809E317
:103440000B50025E0C50035A0D50045A0E50055A90
:08345000062AE72EE4D7120062
:083458001640284D504C414282
:10346000582043313800163220477275706F205350
:10347000616E555342001632184C636420477261E6
:053480006669636F00A6
:0A348600056A046A100EE76ED89084
:1034900008360936043605360D50045C0E500558C2
:1034A00005E30D50045E0E50055A082AE72EF0D7AA
:0234B000120008
:0E34B200FF0EE350246E480E01D04C0EE76E64
:1034C000E72EFED7E76AE72EFED7242EF7D70000B7
:0234D0001200E8
:0E34D200000EF36E00EE00F0080E01D812009E
:1034E000EA6002D0EE6AFCD7F350E9601200EE6A9F
:0234F000FCD707
:0E34F20013EE00F023EE00F0F86A019CB9EC36
:0E35000019F095EC1AF06BEC13F0FBD71200EB
:02350E00056A4C
:10351000080EE76ED890093605360E50055C02E3BA
:0A352000056E092AE72EF7D7120006
:02352A0012008D
:04352C00DF0F0FDFBF
:00000001FF
